:020000040800F2
:1000000000000120E9010008EF010008F3010008E9
:100010000B0200080F020008270200080000000081
:10002000000000000000000000000000C16D00089A
:100030004302000800000000216E0008656E000801
:10004000E5010008E5010008E5010008E5010008F8
:10005000E5010008E5010008E5010008E5010008E8
:10006000E5010008E5010008E5010008E5010008D8
:10007000E5010008E5010008E5010008E5010008C8
:10008000E5010008E5010008E5010008E5010008B8
:10009000E5010008E5010008E5010008C550000879
:1000A000E5010008E5010008E5010008E501000898
:1000B0001121000819240008E5010008E5010008E5
:1000C000E5010008E5010008E5010008E501000878
:1000D000E50100081D5500081D570008E50100084E
:1000E00051510008E5010008E5010008000000008A
:1000F0000000000000000000000000000000000000
:100100000000000000000000E5010008E501000813
:10011000E5010008E5010008E5010008E501000827
:10012000E5010008E5010008E5010008E501000817
:10013000E5010008E5010008E5010008E501000807
:10014000E5010008E5010008E5010008E5010008F7
:10015000000000000000000000000000000000009F
:10016000000000000000000000000000000000008F
:10017000000000000000000000000000000000007F
:10018000000000000000000000000000000000006F
:10019000000000000000000000000000000000005F
:1001A000000000000000000000000000000000004F
:1001B000000000000000000000000000000000003F
:1001C000000000000000000000000000000000002F
:1001D000000000000000000000000000000000001F
:1001E0005FF8E0F100BEFEE708B500F035F800BEAC
:1001F000FEE71EF0040F0CBFEFF30880EFF3098059
:100200007146124A104700BEFEE700BEFEE71EF030
:10021000040F0CBFEFF30880EFF3098071460C4A1E
:10022000104700BEFEE71EF0040F0CBFEFF308807E
:10023000EFF309807146074A104700BEFEE700BE93
:10024000FEE700BEFEE700BEFEE7704707020008BB
:10025000230200083B02000800B583B008F06EF9E5
:10026000304B314A1360314A1360314B314A03E05D
:1002700052F8041B43F8041B2F498B42F8D32A4B36
:100280001A682E4B9A4200D0FEE7284B1A682C4B76
:100290009A42F9D1234B2B4A13602B4A13602B4B04
:1002A00002E0002243F8042B294A9342F9D3254B5C
:1002B0001B6813B9244B1B6803B1FEE708F04AF929
:1002C000694601A808F050F9224C234BE41AA41007
:1002D000002504E0204B53F8253098470135AC4207
:1002E000F8DC1E4C1E4BE41AA410002504E01C4B45
:1002F00053F8253098470135AC42F8DC0099019855
:1003000002F0A4F80546174C174BE41AA41004E0B9
:10031000013C154B53F824309847002CF8DC284654
:1003200008F01CF9BABADECA000000207C000020E8
:1003300000000020B0B4000880000020785634127D
:10034000325476988000002068B50020800000209C
:100350006CB500209403000894030008940300087F
:0C036000940300089403000894030008B4
:10036C00B0B400080000002080000020B0B40008E9
:10037C000000000000000000800000206CB5002090
:08038C00000000000000000069
:1003A000002847D070B50E4615461C46002940D09F
:1003B000002A3ED0002C3CD0049A002A39D0037881
:1003C000002B36D00B78032B30D823B1022B02D070
:1003D0002A78022A2AD823B1022B02D02B78022BAA
:1003E00020D82B78042B03D90223049A137020E021
:1003F0004FF0FF31104B186807F043F830782A4669
:100400000421243003F0CCFF08B12B7823700023A3
:100410001A4619460848006806F09DFE0023049A13
:10042000137006E00323049A137002E00123049A78
:10043000137070BD704700BF2802002090B370B5E4
:1004400082B00E4615461C4641B13AB134B103782C
:1004500023B10B78032B03D90123237002B070BDA5
:100460004FF0FF31104B186807F00BF830780DF1A2
:1004700007020221243003F093FF9DF807304BB1AF
:100480000223237000231A4619460748006806F025
:1004900062FEE3E72A460221307803F081FF002361
:1004A0002370EFE7704700BF2802002000284FD0DC
:1004B00070B582B00E4615461C4679B172B16CB16A
:1004C000069A5AB1079A4AB1089A3AB103782BB101
:1004D0000B78032B04D90123089A137002B070BD66
:1004E0004FF0FF311B4B186806F0CBFF30780DF151
:1004F00007020221243003F053FF9DF80730022B3E
:100500000AD00223089A137000231A46194611488C
:10051000006806F020FEE1E730782A460421083022
:1005200003F03EFF307822460421103003F038FFFC
:100530003078069A0221043003F032FF3078079AAF
:1005400002210C3003F02CFF0023089A1370DBE724
:10055000704700BF2802002000284FD070B582B03D
:100560000E4615461C4679B172B16CB1069A5AB165
:10057000079A4AB1089A3AB103782BB10B78032B4A
:1005800004D90123089A137002B070BD4FF0FF31F7
:100590001B4B186806F075FF30780DF10702022139
:1005A000243003F0FDFE9DF80730012B0AD0022312
:1005B000089A137000231A4619461148006806F07D
:1005C000CAFDE1E730782A460421183003F0E8FE3E
:1005D000307822460421203003F0E2FE3078069A7B
:1005E0000221143003F0DCFE3078079A02211C301F
:1005F00003F0D6FE0023089A1370DBE7704700BFB4
:1006000028020020002836D070B582B00E4615466C
:100610001C4641B13AB134B1037823B10B78032BB6
:1006200003D90123237002B070BD4FF0FF31124B8C
:10063000186806F026FF30780DF1070202212430F9
:1006400003F0AEFE9DF80730013BDBB2032B09D966
:100650000223237000231A4619460748006806F053
:100660007AFDE0E730782A460421283003F098FE2E
:1006700000232370EEE7704728020020002800F0D6
:100680009880F0B583B00E4615461C46002942D02E
:10069000002A40D0002C3ED0089A002A3BD0099A6C
:1006A000002A38D00A9A002A35D00B9A002A32D074
:1006B0000C9A82B30D9A72B30E9A62B30F9A52B328
:1006C000109A42B3119A32B3129A22B3037813B339
:1006D0000B782BB1022B03D00123129A13701AE06E
:1006E0004FF0FF31334B186806F0CBFE30780DF138
:1006F00007020221243003F053FE9DF80730022B3D
:100700000BD80223129A137000231A46194629485F
:10071000006806F020FD03B0F0BD37782A460421BA
:1007200007F1180003F03CFE307822460421203007
:1007300003F036FE30780C9A0221143003F030FEBC
:1007400030780D9A02211C3003F02AFE089A042109
:1007500007F1190003F024FE099A042107F1210092
:1007600003F01EFE0E9A022107F1150003F018FE99
:100770000F9A022107F11D0003F012FE0A9A0421CC
:1007800007F1090003F00CFE0B9A042107F1110098
:1007900003F006FE109A0221781D03F001FE119A63
:1007A000022107F10D0003F0FBFD0023129A1370E4
:1007B000AAE7704728020020002834D070B50E4602
:1007C00015461C4671B36AB364B3049A52B30378F6
:1007D00043B30B78032B22D82B78032B03D90223A6
:1007E000049A13701EE04FF0FF310F4B186806F0AB
:1007F00048FE30782A460421403003F0D1FD08B18C
:100800002B78237000231A4619460748006806F023
:10081000A2FC2B7823700023049A137002E00123BA
:10082000049A137070BD70472802002000284ED033
:1008300070B584B00E4615461C4659B152B14CB144
:10084000089A3AB103782BB10B78032B04D9012312
:10085000089A137004B070BD4FF0FF311C4B18683C
:1008600006F00FFE30780DF107020221403003F050
:1008700097FD9DF8073053B10223089A13700023A7
:100880001A4619461248006806F065FCE2E733781C
:100890008DF808300A238DF80930287809F02AFFEE
:1008A000039000231A4602A90A48006806F053FC88
:1008B000094B01221A7030782A460E212C3003F0A1
:1008C0006FFD2B7823700023089A1370D7E77047C9
:1008D0002802002040020020A810002000283BD061
:1008E00070B582B00E4615461C4659B152B14CB196
:1008F000069A3AB103782BB10B78032B04D9012364
:10090000069A137002B070BD4FF0FF31134B186898
:1009100006F0B7FD30780DF107020221403003F0F8
:100920003FFD9DF80730012B0AD00223069A137071
:1009300000231A4619460948006806F00CFCE1E756
:1009400030782A460421303003F02AFD2B782370BA
:100950000023069A1370EBE7704700BF28020020BF
:1009600000284DD070B582B00E4615461C4679B1B0
:1009700072B16CB1069A5AB1079A4AB1089A3AB163
:1009800003782BB12B78032B04D90123089A137019
:1009900002B070BD4FF0FF311A4B186806F071FDC0
:1009A00028780DF107020221403003F0F9FC9DF890
:1009B0000730022B0AD00223089A137000231A462C
:1009C00019461048006806F0C6FBE1E72878324671
:1009D0000421383003F0E4FC10B13378079A137027
:1009E0002878224604213C3003F0DAFC2878069A65
:1009F0000421343003F0D4FC0023089A1370DDE79F
:100A0000704700BF28020020002836D0F8B50E46F7
:100A100015461C4679B172B16CB1069A5AB1079A63
:100A20004AB1089A3AB103782BB12B78032B03D93A
:100A30000123089A1370F8BD104F4FF0FF3138684A
:100A400006F01FFD287832460421443003F0A8FC4C
:100A5000287822460421483003F0A2FC2378069A25
:100A600013703378079A13700021089B19700B4696
:100A70000A46386806F06FFBDDE770472802002061
:100A800000B9704708B504F0BFFB08BDA8B138B580
:100A900004460A4D4FF47A720023D5E900010AF0AA
:100AA00067F82060D5E900124FF47A7303FB101247
:100AB000034800FB02F2626038BD70471802002054
:100AC00040420F00174B1B68002B2AD0DB6C002B19
:100AD00027D0154A1A60134B1B68DA6C1349516012
:100AE000DA6C13499160DA6C1249D160DA6C124900
:100AF0001161DA6C11495161DA6C11499161DA6C5A
:100B00001049D161DA6C10491162DA6C0F495162F7
:100B1000DA6C0F499162DA6C0E495164DB6C0E4A53
:100B20009A647047C4110020A10300083D04000826
:100B3000AD04000859050008050600087D060008F8
:100B4000B90700082D080008DD0800086109000841
:100B5000090A0008810A00088D0A000808B5044641
:100B60000D4606E02946234801F084FB224B012272
:100B70001A70214B1B78002BFBD1631E092B33D835
:100B800001A252F823F000BF650B0008B10B00086A
:100B9000BB0B0008C50B0008CF0B0008D90B0008E1
:100BA000E90B0008E90B0008E90B0008E10B00085D
:100BB0002946124801F05EFBD8E72946104801F0AB
:100BC00059FBD3E729460F4801F054FBCEE72946ED
:100BD0000D4801F04FFBC9E70C4801F04BFBC5E79E
:100BE0000B4801F047FBC1E729460A4801F042FBE8
:100BF000BCE700BF00B000088400002018B0000867
:100C000030B000084CB0000864B000087CB00008A8
:100C1000A4B00008D0B000080F4B1B68D3B1196D09
:100C2000C1B110B582B00D4A0023D1E9000109F02D
:100C30009FFF044600B901240023009322460421AB
:100C40000748006807F018FA2146064801F012FB31
:100C500002B010BD704700BFC411002040420F0019
:100C600054020020E4B0000810B584B00024394BD1
:100C70001C70394801F0FEFA2346224621463748C7
:100C8000006806F068FA05F0ABFB05F0E9FAFFF73B
:100C9000C3FF334B1978AA2903D0324801F0EAFA8E
:100CA00018E0314801F0E6FA14E0304B1C6806F019
:100CB00077FE0246002300930221204607F0DCF96C
:100CC0004FF0E0234FF08052C3F8042DBFF34F8F55
:100CD000BFF36F8F05F08CFB214B1B78AA2BEFD154
:100CE00000211E4B186806F0CCFB0128E8D1204CEF
:100CF0004FF0FF31206806F0C4FB03F0D9FF00235A
:100D00001A461946206806F026FA05F0C7FA4FF091
:100D1000FF31206806F0B5FB04F063F800231A46A3
:100D20001946206806F017FA0A4B1B78002BBCD036
:100D30000B238DF809304FF07E53039300231A469E
:100D400002A90C48006806F006FA024B00221A704D
:100D5000ABE700BFA8100020F4B00008500200204C
:100D60004400002020B1000804B100085402002013
:100D7000280200204002002008B500231A46194628
:100D80000248006806F0E7F908BD00BF50020020E5
:100D900038B330B589B00C4605460022042104A8BA
:100DA00004F0CBFD00238DF80F30AB6800932B7C53
:100DB00004AA0DF10F01287902F0DEFD08B909B08F
:100DC00030BD6B788DF818308DF81940049B07936F
:100DD00000231A4606A90448006806F0BCF9012061
:100DE000EDE70020704700BF3C020020002800F023
:100DF000DA8010B582B00446007C00F07F00032842
:100E000002D9002002B010BD00238DF80530ADF8E6
:100E10000630637CC3F3C0038DF805300DF1050285
:100E20000E2103F0BDFA0DF106020221512003F05C
:100E3000B7FA9DF80530002B40F09780227C02F035
:100E40007F02012303FA02F2BDF8063023EA02030F
:100E50009BB2ADF806300DF106020E21512003F0D1
:100E60009FFA238AC3F3C3138DF80530207C00F06A
:100E70007F000DF105020E21243003F091FA637C0E
:100E8000C3F300138DF80530207C00F07F000DF1D6
:100E900005020E21283003F083FA637CC3F380132C
:100EA0008DF80530207C00F07F000DF105020E2149
:100EB0001C3003F075FA207C00F07F0004F108027A
:100EC0000E21143003F06CFA0DF1060202215320BA
:100ED00003F066FA9DF80530002B50D1227C02F019
:100EE0007F02012303FA02F2BDF8063023EA02036F
:100EF0009BB2ADF806300DF106020E21532003F02F
:100F00004FFAA37CC3F300038DF80530207C00F07A
:100F10007F000DF105020E210C3003F041FA207C18
:100F200000F07F00A21C0E21043003F039FA0DF10D
:100F300006020221522003F033FA9DF8053043BB2C
:100F4000227C02F07F02012303FA02F2BDF8063090
:100F500023EA02039BB2ADF806300DF106020E2122
:100F6000522003F01DFA01204CE7237C03F07F029E
:100F700001239340BDF8062013439BB269E7237C0D
:100F800003F07F0201239340BDF8062013439BB278
:100F9000AFE7237C03F07F0201239340BDF80620D6
:100FA00013439BB2D7E700207047000050B330B521
:100FB00089B00C4605460022042104A804F0BDFCBB
:100FC00000238DF80F30AB6800932B7C04AA0DF141
:100FD0000F01287902F0D0FC08B909B030BD6B7858
:100FE0008DF818308DF81940DDE9040109F094FB03
:100FF000079000231A4606A90348006806F0ABF8DC
:101000000120EAE7002070474002002038B330B5E5
:1010100087B00C4605460022022103A804F08DFC8F
:1010200000238DF80B30AB6800932B7C03AA0DF1E5
:101030000B01287902F0A0FC08B907B030BD6B782D
:101040008DF810308DF81140039B059300231A464C
:1010500004A90448006806F07EF80120EDE70020AE
:10106000704700BF4002002008B502F09BFA00283C
:1010700049D00378033B162B47D8DFE803F014462A
:1010800018461C46200C461046242846462C30465E
:101090003438463C40000521FFF77AFE34E0042155
:1010A000FFF776FE30E00221FFF772FE2CE003210D
:1010B000FFF76EFE28E00021FFF76AFE24E0012121
:1010C000FFF766FE20E00021FFF770FF1CE0012122
:1010D000FFF76CFF18E00221FFF798FF14E00421EE
:1010E000FFF764FF10E00321FFF760FF0CE006212B
:1010F000FFF75CFF08E00821FFF758FF04E0092133
:10110000FFF754FF00E0002008BD0020FCE70000CE
:1011100010B58AB026E0284C4FF0FF31206806F069
:10112000B0F904A8FFF762FE00231A4619462068AA
:1011300006F011F81EE0204C4FF0FF31206806F059
:10114000A0F900231A461946206806F004F819E0B1
:101150004FF0E0234FF08052C3F8042DBFF34F8FC0
:10116000BFF36F8F002204A9144B186806F001F931
:101170000128D0D0002202A9114B186806F0F9F816
:101180000128D8D000220DF106010E4B186806F098
:10119000F0F80128DCD1084C4FF0FF31206806F050
:1011A00070F9BDF80600FFF75FFF00231A461946E5
:1011B000206805F0D0FFCBE7280200202C02002099
:1011C00030020020340200200A4B1B7803B1704724
:1011D00010B582B0084B1C6806F0E2FB0246002303
:1011E00000930121204606F047FF024B01221A70AE
:1011F00002B010BDE800002058020020094B1B7807
:1012000003B9704710B582B00024009423462246EB
:1012100003210548006806F02FFF024B1C7002B046
:1012200010BD00BFE800002058020020032812D89B
:1012300008B500EB4000094B03EBC000038AC3F381
:10124000C313022B03D0042B01D0002008BDFFF7ED
:10125000BBFF0120FAE70020704700BF8800002094
:10126000032801D90020704700EB40030F4A02EB2E
:10127000C30303F110029B7C6FF300039370537858
:10128000DB0911D000EB4003084A02EBC3035A8884
:101290009B889A4208D300EB4000044B03EBC0004C
:1012A000837C43F001038374012070478800002091
:1012B000032801D90020704708B500EB4002044B19
:1012C00003EBC20300225A80FFF7CAFF08BD00BF2C
:1012D0008800002003280ED879B191420FD0094A26
:1012E00000EB400332F8333000EB4000013322F8CA
:1012F00030300120704700207047084670470020BA
:10130000704700BF88000020032801D900207047E3
:1013100000EB4003104A02EBC30303F110025B7CB5
:101320006FF386135370DBB213F0200F11D000EB74
:101330004003094A02EBC3039A68DB689A4208D368
:1013400000EB4000044B03EBC000437C43F0400340
:1013500043740120704700BF88000020032801D992
:101360000020704708B500EB4002044B03EBC203BA
:1013700000229A60FFF7C8FF08BD00BF8800002068
:1013800003281CD8E9B108B500EB40030E4A02EB74
:10139000C3035B7CC3F3C0038B4201D1002008BDB3
:1013A000134600EB400203EBC202926800EB4001DF
:1013B00003EBC10301329A60FFF7A6FFEFE70020BD
:1013C00070470846704700BF88000020032816D8E1
:1013D00008B50C4B00EB400203EBC20292F812C0BE
:1013E0000CF0FE0202EB5C0203EBC2035B7C13F029
:1013F000080F01D0002008BDFFF7C2FFFBE7002067
:10140000704700BF8800002038B50D46044608B17B
:10141000022806D104EB44030A4A02EBC303987C7A
:10142000400804EB4402074B03EBC2035A7CC2F3AF
:10143000C0022946FFF74EFF29462046FFF7C6FFA8
:1014400038BD00BF88000020034668B102280DD0D7
:10145000431E03EB4303074800EBC3031B8AC3F39C
:10146000C313022B04D80023184670470023FBE760
:101470000123F9E788000020032801D900207047E4
:1014800008B50A4B00EB400C03EBCC0CACF8041095
:10149000003A18BF01229CF8111062F3C7118CF8B2
:1014A0001110FFF7DDFE012008BD00BF88000020FD
:1014B000032801D90020704708B50A4B00EB400C07
:1014C00003EBCC0CCCF80C10003A18BF01229CF8AE
:1014D000111062F345118CF81110FFF715FF012070
:1014E00008BD00BF88000020032848D838B504464E
:1014F00000EB4003234A02EBC3031B8AC3F3C3136D
:10150000022B04D918B1022801D000200DE00039C7
:1015100018BF012104EB44031A4A02EBC3035A7CAF
:1015200061F304125A7409B9012038BD2046FFF74F
:1015300015FF2046FFF7BCFE04EB4403114A02EB03
:10154000C3031B8AC3F3C313022B09D804EB44045F
:101550000C4B03EBC404637C6FF304136374E3E785
:1015600004EB440302EBC30303F11005987C40082D
:10157000FFF7F4FEA8784008FFF79AFEE6E70020A0
:10158000704700BF88000020032870D82DE9F04183
:1015900004460D4600EB4003384A02EBC303987C37
:1015A0004608022909D9CB1EDBB2012B61D8002CD9
:1015B00039D0022C37D000205CE02046FFF744FFF2
:1015C000002859D10CB1022C09D104EB44032B4A59
:1015D00002EBC3031B8AC3F3C313022B10D804EB23
:1015E0004403264A02EBC3031A8A65F3CA121A821D
:1015F00001212046FFF778FF022D0FD0012039E0AE
:1016000006EB46021D4B03EBC2031A8A6FF3CA12A4
:101610001A8201213046FFF767FFE0E72046FFF717
:1016200005FE012026E005F00F08144F04EB4403EB
:1016300007EBC3031A8A68F3CA121A8201212046F3
:10164000FFF752FF06EB460307EBC3073B8A68F33D
:10165000CA133B8201213046FFF746FF042D01D01B
:10166000012007E02046FFF7E1FD012002E0002015
:1016700070470020BDE8F0810020FBE788000020D3
:1016800010B582B000242BE09DF804109DF80000F6
:10169000FFF77AFF044600231A4619464F480068B0
:1016A00005F059FD94B19DF8001001EB41010023B4
:1016B0001A464B4800EBC1014A48006805F04BFD53
:1016C0009DF80130043BDBB2012B71D94FF0E023D0
:1016D0004FF08052C3F8042DBFF34F8FBFF36F8FCD
:1016E0004FF0FF326946404B186805F042FE012872
:1016F000ECD19DF80030032BE8D84FF0FF31374B89
:10170000186805F0BEFE9DF80130052BC3D801A274
:1017100052F823F03D1700085B1700087717000800
:10172000951700082D170008891600089DF8041069
:101730009DF80000FFF7D8FE0446ACE79DF80000D6
:1017400000EB4002264B03EBC2035A7CC2F340126B
:101750000199FFF7ADFE04469DE79DF8000000EB00
:1017600040021F4B03EBC2039DF80420D968FFF72A
:101770009FFE04468FE79DF8000000EB4002184BE7
:1017800003EBC2035A7CD209BDF80410FFF774FEC4
:10179000044680E79DF8000000EB4002104B03EB8D
:1017A000C2039DF804209988FFF766FE044672E79D
:1017B0009DF800300A4803EB430300EBC303997C18
:1017C00001F0FE0303EB510100231A4600EBC101B7
:1017D0000448006805F0BFFC78E700BF2002002045
:1017E000880000202C0200203C02002030B583B08D
:1017F0002AE02146FFF7C4FD00231A4619463B485C
:10180000006805F0A8FC9DF8043003F07F03384819
:1018100003EB430200EBC202517C64F3C301517439
:1018200003EB430100231A4600EBC1013148006875
:1018300005F091FC4FF0E0234FF08052C3F8042DE7
:10184000BFF34F8FBFF36F8F4FF0FF3201A92A4BC9
:10185000186805F08EFD0128ECD19DF8043003F0E6
:101860007F03032BE6D84FF0FF31204B186805F0BB
:1018700008FE9DF8043003F07F031D4D03EB430386
:1018800005EBC3035B699988186807F061F80446A3
:101890009DF8043003F07F0000EB400305EBC30527
:1018A0002B8AC3F3C313013B032BA5D801A252F823
:1018B00023F000BFF3170008C5180008DD18000862
:1018C000E518000800EB4002094B03EBC2035A7C09
:1018D000C2F3C0022146FFF7FDFC8DE72146FFF76A
:1018E00075FD89E72146FFF78FFD85E7200200207F
:1018F000880000202C020020380200202DE9F0434F
:1019000083B0002421E0611C01F07F014B4A08EB09
:101910004803DD0002EBC303987C61F34700987431
:101920000021996059805153454901EBC801596123
:101930005B7CC3F3C0038DF807300DF1070204216F
:10194000204602F02DFD0134A4B2032C72D8A0462B
:1019500004EB4406394B03EBC606337C64F3060301
:10196000337400278DF8077004F124000DF107028D
:10197000022180B202F014FD338A9DF8072062F341
:10198000CA133382ADF8047004F1080001AA0221E1
:1019900080B202F005FDBDF80430B3808DF8077009
:1019A00004F110091FFA89F90DF1070202214846D6
:1019B00002F0F6FC737C9DF8072062F3C713737482
:1019C000009704F118006A46022180B202F0E8FC98
:1019D000009BF3608DF807700DF107020221484665
:1019E00002F0DEFC737C9DF8072062F345137374EC
:1019F000DBB267F386137374B37C67F30003B374CD
:101A00000F4B03EBC402918853F8340006F0A0FF9B
:101A1000737C60F3C3037374DBB267F304137374F2
:101A2000002C3FF470AF022C3FF46DAF611E01F04B
:101A30007F016BE703B0BDE8F08300BF88000020A2
:101A4000040000202DE9F0414FF0FF31224B1868CF
:101A500005F017FD0024264614E0204A05EB450159
:101A6000CB00D718B7F80280D15A79800021D15223
:101A7000E0B2FFF7F5FB0136B6B27B88434515D1DE
:101A80000134A4B2032C19D8254604EB4403DA0030
:101A9000124B13441B8AC3F3C313022BDDD0042B58
:101AA000EED1002CECD0022CD7D1E9E700231A4666
:101AB00039460B48006805F04EFBE1E700231A4663
:101AC00019460548006805F046FB0EB1BDE8F081F7
:101AD000FFF794FBFAE700BF2002002088000020F7
:101AE0002C02002010B50C4608F004FE094908F04D
:101AF00059FE094908F00AFF214608F053FE09F093
:101B00004FF80B46642873F1000301D20020014610
:101B100010BD00BF00007A440000C842032819D855
:101B200008B543010C4AD35AC3F3C313022B01D0A7
:101B3000002008BD02EB40135B78DB0905D002EB07
:101B400040108269C369134301D10120F1E703F01A
:101B5000CDFBFAE700207047F0000020032801D9F0
:101B60000020704708B5064B03EB401040680B4659
:101B700082798188006803F03DFB012008BD00BF29
:101B8000F000002003281AD808B5003918BF012139
:101B90000C4A430102EB401C9CF801E061F3C30EC8
:101BA0008CF801E0D35A13F4F06F01D0002008BD87
:101BB0004001105C00F07F00FFF7D0FFF7E7002046
:101BC000704700BFF0000020032801D900207047B3
:101BD000003918BF0121064B03EB4010437861F335
:101BE00004134370DBB243F02003437001207047BD
:101BF000F000002038B520BB38BD0134A4B2032C5E
:101C000021D86301114AD35A13F4F06FF5D102EBD6
:101C100044135B7813F0200FEFD002EB44135B7892
:101C2000C3F30011C3F3C0039942E6D0E0B2FFF75B
:101C3000A9FF064B03EB44156B786FF345136B70EC
:101C4000DBE70024DBE70120D6E700BFF00000203F
:101C500003281BD808B5003918BF01210C4A4301DD
:101C600002EB401C9CF801E061F3861E8CF801E059
:101C7000D35AC3F3C313012B01D0002008BD400188
:101C8000105C00F07F00FFF769FFF7E70020704766
:101C9000F000002070B50446032801D9002070BD73
:101CA0000846264B03EB4413D960002108F018FFC7
:101CB00000283CD1214B03EB44132149D86808F09C
:101CC0002DFF20B11D4B03EB44131D4ADA601B4E60
:101CD00006EB4416B568F1682846FFF703FFB061CC
:101CE000F1614FEAD56C6A01521B6CF1000C4FEAAE
:101CF0008C0C4CEA927C920053194CF1000C4FEA88
:101D0000CC0242EA5372DB001B1A62EB0102642B25
:101D100072F1000101D200231A46084901EB441177
:101D20000B614A612046FFF7F9FE0120B7E7034B3C
:101D300003EB44130022DA60BCE700BFF000002090
:101D40000000C842032801D90020704770B504463E
:101D50001D4B03EB40139960632904D81A4B03EB26
:101D6000401364229A60184E06EB4416B568F16879
:101D70002846FFF7B7FEB061F1614FEAD56C6A0102
:101D8000521B6CF1000C4FEA8C0C4CEA927C9200D6
:101D900053194CF1000C4FEACC0242EA5372DB00BB
:101DA0001B1A62EB0102642B72F1000101D20023C5
:101DB0001A46054901EB44110B614A612046FFF7C1
:101DC000ADFE012070BD00BFF0000020032801D946
:101DD0000020704708B5003918BF0121054B03EBFF
:101DE00040135A7861F3C7125A70FFF797FE01202B
:101DF00008BD00BFF0000020032849D810B50446F4
:101E00004301254AD35AC3F3C3138B4242D003295B
:101E100001D9002010BD01F00F014301D05A61F338
:101E2000CA10D05203290FD8DFE801F002101D2993
:101E3000194B620103EB4414985C6178C1F3C00153
:101E400000F07F00FFF79EFE0120E3E7124B6201E6
:101E500003EB4414985C6178C1F3801100F07F00BB
:101E6000FFF7F6FEF0E763010B4AD05C002100F0BB
:101E70007F00FFF773FE2046FFF750FEE4E76401A2
:101E8000054B185D002100F07F00FFF767FEDBE7E0
:101E9000002070470020BDE7F0000020032813D881
:101EA000003918BF01210A4B03EB40139B7803F064
:101EB000010399420AD0064B03EB4010837861F38B
:101EC0000003837001207047002070470020704796
:101ED000F0000020032813D8003918BF01210A4B55
:101EE00003EB40139B78C3F3400399420AD0064B9F
:101EF00003EB4010837861F3410383700120704746
:101F00000020704700207047F0000020002858D0C3
:101F100010B5044643780B2B55D8DFE803F0151DA8
:101F2000252A32543A54424A060E406808F000FE10
:101F3000C1B22078FFF748FE10BD406808F0F8FDF8
:101F4000C0B2FFF757FEF7E7406808F0F1FDC1B2F5
:101F50002078FFF717FEEFE7406808F0E9FDC1B20F
:101F60002078FFF775FEE7E741680078FFF792FEFB
:101F7000E2E7406808F0DCFD01462078FFF7E2FE6A
:101F8000DAE7406808F0D4FDC1B22078FFF71EFF01
:101F9000D2E7406808F0CCFDC1B22078FFF72CFFF3
:101FA000CAE7406808F0C4FDC1B22078FFF776FFA9
:101FB000C2E7406808F0BCFDC1B22078FFF78AFF95
:101FC000BAE7002070470020B6E700002DE9F04195
:101FD00082B0002575E03D4F4FEA451807EB4514E8
:101FE00017F8083065F3060307F8083000268DF867
:101FF000076005F140000DF10702022180B202F0F6
:10200000CFF937F808309DF8072062F3CA1327F894
:1020100008308DF8076005F144000DF10702022138
:1020200080B202F0BDF9A3789DF8072062F30003A7
:10203000A3708DF8076005F148000DF10702022139
:1020400080B202F0ADF9A3789DF8072062F3410356
:10205000A3704FF47A73009305F13C006A460221A5
:1020600080B202F09DF9009BA360637866F3C3031E
:102070006370DBB266F345136370DBB266F304137F
:102080006370DBB266F386136370DBB266F3C7136B
:1020900063700023E36000220023C4E90423C4E941
:1020A00006230B4901EBC50161600A492C0101EBD4
:1020B0000516085D40F001000855C6E90223013508
:1020C000ADB2032D87D902B0BDE8F081F000002049
:1020D000240000207001002000B583B009E04FF01B
:1020E000E0234FF08052C3F8042DBFF34F8FBFF3AE
:1020F0006F8F4FF0FF326946044B186805F039F9CD
:102100000128ECD16846FFF701FFE8E74002002014
:102110002DE9F84301214FF0804007F0A5F901288F
:1021200001D0BDE8F883054601214FF0804007F05B
:102130000BFA0024264624E0374800EB44100769D8
:102140004069BB4272EB000313D3344B200103EB15
:1021500004111A5C42F001021A5400220023C1E962
:10216000022300210136B6B206E02946FAE72946E5
:10217000F8E70021F6E70021E0B2FFF7EFFC0134B9
:10218000A4B2032C42D86301234AD35AC3F3C31326
:10219000022BF4D102EB44135B78DB09EBD002EBAA
:1021A00044139F69D86957EA00032DD0DFF86C808B
:1021B0004FEA041C08EB041EDEF80830DEF80C20A1
:1021C000643342F10002CEF80830CEF80C2018F843
:1021D0000CC01CF0010FAFD0BB4272EB0003C4D3A4
:1021E0000D4B03EB44131A695B691343BFD0220103
:1021F00018F802006FF3000008F802000022002324
:10220000CEE902230021ADE70021B5E7002E88D1F9
:1022100003F082F885E700BFF00000207001002085
:1022200008B50146014803F0F3F808BD0048004036
:1022300000B583B000238DF8073009E04FF0E023AC
:102240004FF08052C3F8042DBFF34F8FBFF36F8F51
:102250004FF0FF320DF10701054B186805F089F8C2
:102260000128EBD19DF80700FFF7DAFFE6E700BF92
:10227000440200200FB430B583B0069C002C30D04F
:102280001E4B1B783BB907AA019221461C4803F05C
:10229000C1FF00240FE04FF0FF311A4B186805F022
:1022A000F0F8F0E7C0B2FFF7BBFF95F900300A2B5A
:1022B00014D00134A4B2632C10D8114B1D19185737
:1022C00060B10E4B1B78002BECD000231A46294638
:1022D0000D48006804F03FFF0128E6D0074B1B784B
:1022E00023B903B0BDE8304004B0704700231A465C
:1022F00019460448006804F02EFFF2E7140200209B
:10230000B0010020240200204402002010B582B059
:1023100000220DF10701364B186805F02AF8012854
:1023200001D002B010BD9DF80730012BF9D1314B1F
:1023300093F81A315BB32F4B93F81A3173B32D4BCB
:1023400093F81A1109B1C72942D92A4B93F81A31C7
:10235000CBB1284AB2F81E214FF6FF718A4203D052
:1023600001322449A1F81E21FA2B35D0C72B0AD9F6
:10237000204BB3F824314FF6FF72934203D0013360
:102380001C4AA2F824311B4801F0ECF8C9E7194CAB
:10239000204600F036FB84F81A01CCE73221164BB8
:1023A000186805F06EF8012804D0124B062283F855
:1023B0001A21C4E70F4C204601F055F884F81A01A1
:1023C00000231A4619460C48006804F0C4FEB6E71C
:1023D000184600F07BFBB8E7064AB2F820214FF61A
:1023E000FF718A42C2D001320249A1F82021BDE723
:1023F000480200205C0200202802002008B5FFF7F8
:1024000085FF4FF0E0234FF08052C3F8042DBFF357
:102410004F8FBFF36F8FF2E710B50121094807F026
:1024200023F8012800D010BD0121064807F08CF8E0
:10243000054CD4E90023501C43F10001C4E900011C
:10244000F1E700BF000400401802002030B583B05F
:102450004FF4A06006F094F802F0E2FE0023C14AB7
:102460001380C14A137003F003FA012004F024FF23
:10247000BE4B1860002800F0388100220121642042
:1024800004F052FEBA4B1860002800F0338100239C
:102490000193082200928022B649B74805F010FA4D
:1024A000012840F02C81B548FFF7E4FE01231122FA
:1024B0006B21B348FFF7DEFE03F0BAFEA94B1A7892
:1024C00060F300021A70FEF7FDFA032200210120DA
:1024D00004F02AFEAB4B1860002800F01581AA4BCF
:1024E000009300231A460121A84805F0A9FDA84B36
:1024F0001860002800F00D81002301930322009250
:102500004FF40062A349A44805F0DAF9012840F02D
:102510000581A248FFF7AEFE02F094FF02F042FFF1
:1025200002F008F902F0CEFC9D48FFF7A3FE02F08E
:1025300051FDFFF7E3F9012004F0BEFE994B18604E
:10254000002800F0F08000220121802004F0ECFD42
:10255000954B1860002800F0EB80002208218020B5
:1025600004F0E2FD914B1860002800F0E6800022A4
:102570001821802004F0D8FD8D4B1860002800F051
:10258000E1808C4B00930023012264218A4805F0EE
:1025900057FD8A4B1860002800F0D9800023019372
:1025A0000322009280228649864805F089F9012895
:1025B00040F0D280002301930322009280228249BE
:1025C000824805F07DF9012840F02A818048FFF714
:1025D00051FE02F0DFFD02F0B5FEFFF7F7FC00222E
:1025E0000821202004F0A0FD7A4B1860002800F09C
:1025F0001C8100220821202004F096FD764B1860F3
:10260000002800F01781002301930322009280220A
:102610007249734805F054F9012840F0108171485F
:10262000FFF728FE704B01930023009301226F49AE
:102630006F4800F027F902F0FBFF012004F03CFE98
:102640006C4B1860002800F0FF8000220121082058
:1026500004F06AFD684B1860002800F0FA80002240
:102660000421084604F060FD644B1860002800F067
:10267000F580002301930322009280226049614883
:1026800005F01EF9012840F0EE805F48FFF7F2FDEB
:1026900000220221802004F047FD5C4B18600028D6
:1026A00000F0E68000230193032200924FF4807231
:1026B0005749584805F004F9012840F0DE80564893
:1026C000FFF7D8FD02F0F2FD5448FFF7D3FD264D89
:1026D00001232B7005F026F900242C7021460620DA
:1026E000FEF73CFA204603B030BD0B210220FEF776
:1026F00035FAC2E60B210120FEF730FAC7E60121C8
:102700000420FEF72BFACEE65B210320FEF726FA23
:10271000E5E65B210520FEF721FAEDE6092104201C
:10272000FEF71CFAF5E615210220FEF717FA0AE774
:1027300015210120FEF712FA0FE716210120FEF7FE
:102740000DFA14E717210120FEF708FA19E7152101
:102750000520FEF703FA21E702210420FEF7FEF927
:1027600028E700BF9004002014020020240200206B
:102770004402002040B100083122000848B100089E
:1027800074B1000850020020790D00088CB10008D7
:102790005402002094B10008690C00089CB10008A4
:1027A000ACB1000820020020380200203C020020CA
:1027B0002C020020451A0008BCB100085802002075
:1027C000C8B10008ED170008D4B100088116000850
:1027D000E0B100084002002030020020F0B1000803
:1027E000D9200008F8B10008315600080044004024
:1027F0005C02002028020020480200204C02002039
:1028000008B20008FD23000810B2000834020020BE
:1028100020B200081111000828B2000838B20008E0
:1028200015210420FEF79AF9D0E61F210120FEF7BA
:1028300095F9DEE620210120FEF790F9E3E6032179
:102840000420FEF78BF9EAE651210220FEF786F913
:10285000FBE651210120FEF781F900E7522101201A
:10286000FEF77CF905E708210420FEF777F90CE76D
:102870000A210120FEF772F914E70B210420FEF76C
:102880006DF91CE700284AD0002948D00160436058
:10289000BDF800300381837A072161F3030383725B
:1028A000DBB26FF304138372DBB26FF346138372F0
:1028B000DBB26FF3C7138372C37A6FF30003C37283
:1028C000DBB2022161F34303C3720273002380F879
:1028D000073180F80831A0F81031A0F81231A0F8C3
:1028E0001431A0F81631A0F8183180F81A3180F8A8
:1028F0001B3180F81C31A0F81E31A0F82031A0F85F
:102900002231A0F82431A0F8263180F8223280F854
:102910002332FF2380F82C32019BC0F830327047FD
:10292000062817D8DFE800F00419070A0D10130075
:102930004FF4966070474FF4965070474FF416501E
:1029400070474FF4964070474FF4164070474FF46D
:10295000614070474FF4E13070474FF416607047A4
:10296000012801D0002070474FF4805070470128A3
:1029700004D0022805D14FF4806070474FF4C06046
:10298000704700207047012801D0002070474FF4A5
:102990000050704730B300B5864621B14FF0000CAF
:1029A0004FF6FF7016E04FF6FF705DF804FB013341
:1029B0009BB2072B0AD800F001024008002AF6D08B
:1029C00080F4204080F0010080B2F0E70CF1010CAF
:1029D0001FFA8CFC8BB26345E7D91EF80C305840C7
:1029E0000023E6E74FF6FF70704738B515461C46E2
:1029F000FFF7D0FF44EA0524A04214BF00200120C5
:102A000038BD10B310B5044690F80711032918D942
:102A1000427B037B9A420CD14A1E0239431802447E
:102A20005B7B527BC9B20D30FFF7DFFF28B100207E
:102A300010BDC82084F81A01FAE7FA2084F81A01B8
:102A4000F6E7FE2084F81A01F2E7042070470246F8
:102A5000D8B190F8223290F80CC0184480F828C100
:102A60000133DBB282F82232012909D092F8081131
:102A7000D01880F82811013382F8223200207047E4
:102A800092F8081141F08001F2E704207047D8B1B4
:102A900010B5044690F8221200F59470FFF77AFF03
:102AA00000230DE0D90040FA01F194F8222204EB52
:102AB000020C8CF82811013284F822220133DBB297
:102AC000012BEFD9002010BD04207047A8B170B5CC
:102AD0000E460446002580F822520121FFF7B7FF79
:102AE00094F82232E21882F82861013384F8223205
:102AF0002046FFF7CCFF284670BD042070470346F0
:102B000080B111B152B9082100E0082193F80721E2
:102B10008A4205D2032083F81A0170470B21F5E79A
:102B20000020F8E7042070470246A0B159B97D2083
:102B3000517C937C43EA0123A2F814312BB18342E8
:102B400007D9032002E07B20F2E7032082F81A0174
:102B500070470020FAE704207047034668B1C17C43
:102B6000A0F8161190F80721093A914203D00320EA
:102B700083F81A0170470020FAE7042070470246E4
:102B8000C8B1C37B017C41EA0321A0F81011B0F861
:102B900014310B449BB2013B9BB2A0F81231832944
:102BA00003D8832B05D9022000E0022082F81A0105
:102BB00070470020FAE704207047034648B190F8B8
:102BC0000721072A03D8032083F81A017047002041
:102BD000FAE704207047024678B1417C837C43EADF
:102BE0000123A0F81431013B9BB27C2B03D90320B5
:102BF00082F81A0170470020FAE704207047024665
:102C0000C8B1C37B017C41EA0321A0F81011B0F8E0
:102C100014310B449BB2013B9BB2A0F81231352911
:102C200003D8352B05D9022000E0022082F81A01D2
:102C300070470020FAE7042070472DE9F04383B085
:102C4000002800F097800F460446032950D0FFF774
:102C5000B4FF94F81A61002E40F08D80032F4CD001
:102C60002046FFF7B8FF94F81A61002E40F08380E9
:102C7000032F47D02046FFF7C2FF94F81A61002EB9
:102C800079D14FF0000884F8228241462046FFF7B0
:102C9000DEFEB4F8142194F82232E118520081F8D3
:102CA0002821013384F82232B4F8105104F509794F
:102CB00042460421484602F040FEB4F81231AB42CD
:102CC00052D32946384600F08DFC38B390F8058081
:102CD000E37A03F00E03022B18D0E37A002200926D
:102CE000C3F342030422494600F070FE324631E04D
:102CF00000221146FFF703FFABE700212046FFF754
:102D000013FFB0E72046FFF73AFFB6E70023009332
:102D100002230422494600F059FEE7E74FF001087C
:102D2000E4E702F5887304EB4303998894F82232B0
:102D3000E01880F828110133DBB284F82232E01861
:102D4000090A80F82811013384F822320135ADB226
:102D50000132D2B24245B0D2B4F81231AB42E0D225
:102D6000032684F81A6106E02046FFF790FE94F8E7
:102D70001A6100E00426304603B0BDE8F083F0B5E8
:102D800083B0002800F0CA800C4605460A4601219F
:102D9000FFF7B5FE95F81A71002F40F0C080002CA7
:102DA00048D10123A5F814310223A5F8163128468D
:102DB000FFF7E5FE95F81A71002F40F0B080002172
:102DC00085F822122846FFF742FE95F82232E97B69
:102DD000EA1882F828110133DBB285F82232297C07
:102DE000EA1882F828110133DBB285F82232697CB7
:102DF000EA1882F828110133DBB285F82232A97C67
:102E0000EA1882F82811013385F822322846FFF7A4
:102E10003EFEB5F81061ECB90424B5F81231B342A6
:102E200079D33146032000F0DDFB8446A0B1407920
:102E3000394646E001212846FFF776FE95F81A71DB
:102E4000002F6CD12846FFF788FE95F81A71002FE5
:102E5000ADD064E00724E0E70120E9E7032785F827
:102E60001A715CE001F5887205EB4202B2F90420A8
:102E700022F0FF0205EB040E9EF80DE042EA0E027E
:102E800092B201F5887E05EB4E0EAEF804200134B7
:102E9000E4B20133DBB2012B0FD8002BE2D001F5F5
:102EA000887205EB4202B2F90420D2B205EB040E9F
:102EB0009EF80DE042EA0E22E3E70136B6B2013198
:102EC000C9B2814205D2B5F81231B342C6D33B46EE
:102ED000E1E7BCF1000FA0D0EB7A03F00E03022B68
:102EE0000DD0EB7A0122019200220092C3F342033B
:102EF000042205F50971604600F0E6FC8DE7012328
:102F00000193002300930223042205F50971604612
:102F100000F0DAFC81E795F81A7100E004273846E2
:102F200003B0F0BD034680B111B152B9082100E0F1
:102F3000082193F807218A4205D2032083F81A0159
:102F400070470A21F5E70020F8E7042070470246A1
:102F5000B0B161B94FF4FA60517C937C43EA01232C
:102F6000A2F8143133B1834208D9032003E04FF4AF
:102F7000F660F1E7032082F81A0170470020FAE7B3
:102F8000042070470346A0B1C17CA0F8161190F848
:102F90000721093A914203D0032083F81A017047B0
:102FA000B0F81421B2EBC10F01DD0320F5E70020DA
:102FB000F3E7042070470246C8B1C37B017C41EAB5
:102FC0000321A0F81011B0F814310B449BB2013B5F
:102FD0009BB2A0F81231752903D8752B05D90220B0
:102FE00000E0022082F81A0170470020FAE704206E
:102FF0007047034648B190F80721072A03D80320F9
:1030000083F81A0170470020FAE70420704702464F
:1030100080B1417C837C43EA0123A0F81431013B59
:103020009BB2B3F5FA6F03D3032082F81A017047FD
:103030000020FAE7042070470246C8B1C37B017C38
:1030400041EA0321A0F81011B0F814310B449BB2EF
:10305000013B9BB2A0F812311F2903D81F2B05D9C1
:10306000022000E0022082F81A0170470020FAE7EF
:1030700004207047002800F09D802DE9F04383B0C4
:103080000F460446012917D0FFF7B3FF94F81A0141
:1030900078B9012F15D02046FFF7B9FF94F81A012F
:1030A00038B9012F12D02046FFF7C6FF94F81A0155
:1030B00080B103B0BDE8F08300221146FFF732FF74
:1030C000E4E700212046FFF742FFE7E72046FFF74D
:1030D00072FFEBE7002584F8225229462046FFF7CD
:1030E000B6FC94F82232E21882F828510133DBB2A0
:1030F00084F82232234483F8285104F509792A46BA
:103100000421484602F019FCB4F810514FF0FF3684
:103110004FF001081EE008F101085FFA88F894F802
:1031200022320133DBB284F822322344002683F8B2
:10313000286123E094F82232234493F928310122B4
:10314000B2401343DBB294F82222224482F82831A1
:103150000135ADB2B4F81231AB421ED32946384620
:1031600000F040FA30B100230093012304224946C5
:1031700000F02CFC062ECEDC013676B2B4F82432F8
:10318000002BD7D194F82232234493F9283101221D
:10319000B24023EA0203DBB2D5E794F822320133CE
:1031A00084F8223284F82A812046FFF770FC94F8D4
:1031B0001A017EE704207047002800F09E802DE968
:1031C000F04182B00E4604460A460121FFF7AAFEEE
:1031D00094F81A0160B976B90123A4F814310223D6
:1031E000A4F816312046FFF7E6FE94F81A0190B1D4
:1031F00002B0BDE8F08101212046FFF7A8FE94F857
:103200001A010028F4D12046FFF7BCFE94F81A01F9
:103210000028E7D0ECE7002184F822122046FFF7CF
:1032200016FC94F82232E17BE21882F8281101336F
:10323000DBB284F82232217CE21882F828110133B3
:10324000DBB284F82232617CE21882F82811013363
:10325000DBB284F82232A17CE21882F82811013313
:1032600084F822322046FFF712FCB4F8105126B938
:103270004FF004084FF0FF3716E04FF00708F9E76A
:1032800008F101085FFA88F8002719E00123A4F883
:1032900024320123019300220092042204F50971D3
:1032A00000F012FB0135ADB2B4F81231AB4221D3BC
:1032B0002946012000F096F9062FE1DC01377FB2A4
:1032C0000028EFD06EB904EB0803597B08F1010226
:1032D0002244537B43EA0123B3F57F4FD6D000232A
:1032E000D5E704EB08035B7B3B4103F00103A4F843
:1032F0002432CEE794F81A017AE704207047034697
:1033000048B190F80721052A03D8032083F81A0151
:1033100070470020FAE704207047F0B110B504466A
:10332000002180F82212FFF792FB02230BE094F8B1
:103330002222E118487BA11881F82801013284F883
:1033400022220133DBB294F80721023A9342EEDBEA
:103350002046FFF79CFB002010BD0420704770B38F
:1033600070B50E460446002580F822522946FFF724
:103370006EFBB4F8182194F82232E118100A81F893
:1033800028010133DBB284F82232E11881F82821C8
:103390000133DBB284F82232E218310A82F82811B4
:1033A0000133DBB284F82232E21882F8286101335B
:1033B00084F822322046FFF76AFB284670BD0420BD
:1033C000704700284DD010B50446FFF798FF94F8D9
:1033D0001A01C0B9E27B237C43EA0223A4F8183126
:1033E0000F2B3AD8DFE803F0083939393939393940
:1033F00039391039212939312046FFF78EFF84F8F9
:103400001A0194F81A0110BD0023A4F82031A4F881
:103410001E31A4F82231A4F82431A4F82631204624
:10342000FFF77BFF84F81A01EBE7B4F82011204680
:10343000FFF795FF84F81A01E3E7B4F81E11204660
:10344000FFF78DFF84F81A01DBE7B4F8241120465A
:10345000FFF785FF84F81A01D3E7032384F81A31B4
:10346000CFE704207047002845D0024690F81A01A3
:10347000002842D108B592F80831013B0F2B35D80E
:10348000DFE803F0080D12171C26343034343434CE
:103490003434212B01211046FFF7ECFD08BD022139
:1034A0001046FFF7E7FDF9E703211046FFF7C5FBDC
:1034B000F4E704211046FFF7C0FBEFE700211046B8
:1034C000FFF77AFEEAE701211046FFF775FEE5E710
:1034D00000211046FFF753FCE0E701211046FFF7FB
:1034E0004EFCDBE71046FFF76CFFD7E7012382F8BD
:1034F0001A311846D2E704207047704788B310B5D8
:10350000044611B1012916D010BD002240F22661F7
:10351000006806F093F9002384F82C3284F81A31FD
:1035200084F81B3184F8073160680028ECD02189C9
:1035300005F09AFAE8E7012380F82C3280F823326C
:10354000406810B1218905F05FFA94F828112068CD
:1035500006F0EEF9012240F22661206806F06EF9CD
:10356000D2E77047E0B108B5034690F81A21C72AA0
:1035700002D890F8222252B9B3F824210132A3F8DC
:10358000242100211846FFF7B9FF042008BDB0F838
:1035900022210132A0F822210121FFF7AFFFF4E739
:1035A00004207047772805D800EB4000024B03EB5E
:1035B000C0007047002070479404002000290CDBF5
:1035C00089B2084480B2772805D800EB4000044B4C
:1035D00003EBC0007047002070470020704700BF19
:1035E0009404002008B50138032800F2B280DFE817
:1035F00000F002485C99032903D81020FFF7DEFF92
:1036000008BDA1F10E039BB2032B02D80E39202076
:10361000F4E7A1F11C039BB2032B02D81C3928202C
:10362000ECE7A1F12A039BB2032B02D82A392C2004
:10363000E4E7A1F138039BB2032B02D838393020DC
:10364000DCE7A1F146039BB2032B02D846393820B0
:10365000D4E7A1F154039BB2032B02D85439442080
:10366000CCE7A1F162039BB2032B02D86239482058
:10367000C4E7A1F166039BB20F2B6CD866395820C2
:10368000BCE7032901D80020B8E7A1F10E039BB2E3
:10369000032B02D80E390C20B0E7A1F11C039BB21A
:1036A000032B5AD81C391C20A8E7032901D808206D
:1036B000A4E7A1F10E039BB2072B05D80E3901EB4D
:1036C000D1714910182099E7A1F12A039BB2032B6D
:1036D00002D82A39242091E7A1F138039BB2072BA5
:1036E00005D8383901EBD1714910342086E7A1F1B2
:1036F00054039BB2072B05D8543901EBD171491003
:103700003C207BE7A1F170039BB2032B02D87039F8
:10371000402073E7A1F174039BB20F2B1FD87439BB
:1037200068206BE7032901D8042067E7A1F10E03A5
:103730009BB2072B05D80E3901EBD171491014202B
:103740005CE7A1F12A039BB20B2B0AD82A394C2043
:1037500054E7002054E7002052E7002050E7002003
:103760004EE700204CE768B110B50C4601460CB995
:10377000002010BD00231A460231204603F0EBFC66
:103780000120F6E70020704738B515461C46FFF7C4
:1037900029FF80B10346059A12B1428805990A8033
:1037A000BDF81020944201D1002005E029461846BA
:1037B000FFF7D9FF00E0002038BD00002DE9F043FD
:1037C00083B0BDF8289030B30D4616461F4680469C
:1037D00011B312B10020044607E000251CE038F8C0
:1037E000143026F814300134A4B2AC4211D20028AF
:1037F000F5D104EB090136F8143000220192009350
:1038000038F81430064A126889B23846FFF7BCFF10
:10381000E5E7254600E00025E8B203B0BDE8F08307
:10382000340200202DE9F04182B0BDF820709DF8EF
:10383000286000293CD015461C468846002A3BD00B
:10384000099B002B3AD0022C11D9E31EDBB2012BCD
:1038500036D802F053F816B300972346099A81B27E
:103860002846FFF7ABFF003818BF012021E063B204
:103870000BB900201DE02EB998F80030099A13709A
:10388000012016E0099B1B780022019200930B781F
:103890000C4A126839462046FFF776FFECE7099A92
:1038A00081B2284602F0F1F8003818BF012000E08C
:1038B000002002B0BDE8F0810020FAE70020F8E720
:1038C0000020F6E73402002070B586B09DF82C6029
:1038D000002845D00C4611461A460546002C42D019
:1038E000002942D090F810C0BCF1020F1DD9ACF1F4
:1038F000030C5FFA8CFCBCF1010F38D800238DF863
:1039000017300DF1170303939DF82830029301231C
:103910000193437900938368204602F038F816B18A
:103920009DF81730B3B968791BE04FFA8CF30BB9E7
:10393000002016E036B1228883681B780D4909689B
:103940009A4204D12288AB681A70012009E0FFF77F
:103950000AFFF7E7074B19682846FFF704FFE2E77D
:10396000002006B070BD0020FBE70846F9E7002004
:10397000F7E700BF3402002001B310B514460A4631
:10398000F4B10299F1B1022B0ED9033BDBB2012B4A
:103990001AD801F0B3FF224681B2029802F075F8FE
:1039A000003818BF01200CE05BB20BB9002008E022
:1039B000029B1B7813702380012002E000207047D7
:1039C000002010BD0020FCE70020FAE770B584B0AD
:1039D0000C4611469DF8202048B31D4606464CB3C0
:1039E00051B3037C022B0FD9033BDBB2012B25D84B
:1039F000002303930292019500912346012241790D
:103A0000806801F0C4FF13E05BB20BB900200FE047
:103A100042B9B3682A460121187801F0A3FF20803B
:103A2000012005E00022204601F087FFF1E7002099
:103A300004B070BD0020FBE70846F9E70020F7E777
:103A400010B588B004460022042106A801F075FFD5
:103A500000238DF81730002C3ED0E368002B3ED0B9
:103A6000A06800283DD021794A1ED2B2032A01D98C
:103A7000002032E00139032908D8DFE801F0021BF9
:103A800021271B681B78069300230793069A079B40
:103A9000134302D001238DF81730237D0293019048
:103AA000638A0093237C06AA0DF117012079FFF7A2
:103AB000B9FE12E01B681B88069300230793E5E715
:103AC0001B681B68069300230793DFE71B68D3E995
:103AD0000023CDE90623D9E7002008B010BD00205F
:103AE000FBE70020F9E730B587B004460D46002219
:103AF000042104A801F021FF00238DF80F30002CD1
:103B000031D0002D32D0A268002A31D02379013B78
:103B1000DBB2032B01D9002026E000200021CDE9F3
:103B200004010092237C04AA0DF10F012079FFF714
:103B300023FFC8B12379013B032B06D8DFE803F04C
:103B400002070B0E9DF810302B7001200CE0BDF821
:103B500010302B80F9E7049B2B60F6E7DDE90423A6
:103B6000C5E90023F1E7002007B030BD0020FBE7E6
:103B70000020F9E740B108B5C2680AB9002008BDC5
:103B80001168FFF7B0FFFAE70020704730B589B041
:103B900004460D460022042106A801F0CEFE0023B3
:103BA0008DF81730002C39D0002D3AD0A1680029AB
:103BB00039D02279531EDBB2032B01D900202EE02D
:103BC000013A032A07D8DFE802F0021A1F242B78F3
:103BD000069300230793069A079B134302D0012301
:103BE0008DF81730237D02930191638A0093237C23
:103BF00006AA0DF117012079FFF714FE0FE02B88BC
:103C0000069300230793E6E72B68069300230793A8
:103C1000E1E7D5E90023CDE90623DCE7002009B080
:103C200030BD0020FBE70020F9E7F8B101B3C2681E
:103C300002B30079431E032B1ED8DFE803F002060F
:103C40000B1013680A781A70704713680A881A8074
:103C50000120704713680A681A60012070471368D2
:103C6000D1E90001C3E9000101207047002070473D
:103C700000207047002070470020704738B5144678
:103C8000054620B109298CBF0023012303750F29A4
:103C900029D8DFE801F0080C15101A1F2828282859
:103CA000082828281A1F2846FFF7CAFE1CE02846C5
:103CB000FFF760FF18E021462846FFF7B6FF13E044
:103CC00021462846FFF70FFF0EE021462846FFF762
:103CD0005DFF09E021462846FFF7A7FF2146284659
:103CE000FFF754FF00E0002038BD10B588B004464F
:103CF0000022042106A801F020FE00238DF81730D1
:103D0000002C42D0E368002B42D0A068002841D0AC
:103D10002179CA1FD2B2032A01D9002036E007391F
:103D2000032909D8DFE801F0021E252B1B6893F94F
:103D30000030DA1706930792069B012B079B73F15D
:103D4000000302DB01238DF81730237D02930190DD
:103D5000638A0093237C06AA0DF117012079FFF7EF
:103D600061FD13E01B68B3F90030DA170693079280
:103D7000E2E71B681B68DA1706930792DCE71B680B
:103D8000D3E90023CDE90623D6E7002008B010BD13
:103D90000020FBE70020F9E730B587B004460D4668
:103DA0000022042104A801F0C8FD00238DF80F3083
:103DB000002C31D0002D32D0A268002A31D02379D6
:103DC000073BDBB2032B01D9002026E000200021B5
:103DD000CDE904010092237C04AA0DF10F012079A2
:103DE000FFF7CAFDC8B12379073B032B06D8DFE8EC
:103DF00003F002070B0E9DF910302B7001200CE030
:103E0000BDF910302B80F9E7049B2B60F6E7DDE964
:103E10000423C5E90023F1E7002007B030BD0020EE
:103E2000FBE70020F9E740B108B5C2680AB90020F5
:103E300008BD1168FFF7B0FFFAE70020704730B502
:103E400089B004460D460022042106A801F075FD44
:103E500000238DF81730002C3DD0002D3ED0A168F6
:103E600000293DD02279D31FDBB2032B01D90020DA
:103E700032E0073A032A08D8DFE802F0021D2328BF
:103E800095F90030DA1706930792069B012B079BE2
:103E900073F1000302DB01238DF81730237D0293B9
:103EA0000191638A0093237C06AA0DF11701207902
:103EB000FFF7B8FC10E0B5F90030DA170693079267
:103EC000E3E72B68DA1706930792DEE7D5E90023CC
:103ED000CDE90623D9E7002009B030BD0020FBE77B
:103EE0000020F9E710B319B3C2681AB30379073B8E
:103EF000032B21D8DFE803F002080E13136891F9B1
:103F000000201A70012070471368B1F900201A8050
:103F10000120704713680A681A600120704713680F
:103F2000D1E90001C3E9000101207047002070477A
:103F300000207047002070470020704738B51446B5
:103F4000054620B109298CBF0023012303750F29E1
:103F500029D8DFE801F0080C15101A1F2828282896
:103F6000082828281A1F2846FFF7BFFE1CE028460D
:103F7000FFF759FF18E021462846FFF7B3FF13E08B
:103F800021462846FFF708FF0EE021462846FFF7A6
:103F900056FF09E021462846FFF7A4FF21462846A0
:103FA000FFF74DFF00E0002038BD70B586B0044635
:103FB0000022022105A801F0C0FC00238DF8133077
:103FC000FCB1E36803B3A56805B32679052E01D0DB
:103FD000002017E01B6818680590002106F09EFD80
:103FE00010B101238DF81330237D02930195638A6C
:103FF0000093237C05AA0DF113013046FFF712FC54
:1040000000E0002006B070BD0020FBE70020F9E7CB
:1040100030B585B004460D460022022103A801F008
:104020008CFC00238DF80B30ACB1BDB1A368BBB1E3
:104030002079052801D000200EE000220392009391
:10404000237C03AA0DF10B01FFF796FC20B1039B23
:104050002B60012000E0002005B030BD0020FBE710
:104060000020F9E740B108B5C2680AB9002008BDD0
:104070001168FFF7CDFFFAE700207047F0B587B071
:1040800004460D460022022105A801F056FC00233B
:104090008DF81330ECB1FDB1A668FEB12779052F7C
:1040A00001D0002016E028680590002106F036FDBA
:1040B00010B101238DF81330237D02930196638A9A
:1040C0000093237C05AA0DF113013846FFF7AAFBE4
:1040D00000E0002007B0F0BD0020FBE70020F9E77A
:1040E00060B169B1C2686AB10379052B01D00020C3
:1040F000704713680A681A600120704700207047F3
:10410000002070470020704738B51446054620B19E
:1041100009298CBF0023012303750F2929D8DFE863
:1041200001F0080C15101A1F28282828082828280C
:104130001A1F2846FFF739FF1CE02846FFF792FFB9
:1041400018E021462846FFF7CBFF13E0214628461A
:10415000FFF75EFF0EE021462846FFF78FFF09E0DC
:1041600021462846FFF7BCFF21462846FFF786FF79
:1041700000E0002038BD30B589B00446002204219B
:1041800006A801F0DAFB00238DF8173014B3E368BA
:104190001BB3A5681DB32279062A01D000201AE0BE
:1041A0001B68D3E90001CDE906010022002306F0D7
:1041B00083F910B101238DF81730237D0293019507
:1041C000638A0093237C06AA0DF117012079FFF77B
:1041D00029FB00E0002009B030BD0020FBE70020F3
:1041E000F9E730B587B004460D460022042104A843
:1041F00001F0A3FB00238DF80F30D4B1E5B1A36823
:10420000E3B12279062A01D0002013E0002000212A
:10421000CDE904010093237C04AA0DF10F0120795C
:10422000FFF7AAFB30B1DDE90423C5E90023012033
:1042300000E0002007B030BD0020FBE70020F9E7D8
:1042400040B108B5C2680AB9002008BD1168FFF77F
:10425000C8FFFAE70020704770B588B004460D46E5
:104260000022042106A801F068FB00238DF8173016
:1042700004B315B3A66816B32379062B01D000202A
:1042800019E0D5E90001CDE906010022002306F07E
:1042900013F910B101238DF81730237D0293019695
:1042A000638A0093237C06AA0DF117012079FFF79A
:1042B000B9FA00E0002008B070BD0020FBE7002044
:1042C000F9E770B179B1C2687AB10379062B01D0F0
:1042D000002070471368D1E90001C3E90001012003
:1042E000704700207047002070470020704738B5A5
:1042F0001446054620B109298CBF0023012303750C
:104300000F2929D8DFE801F0080C15101A1F2828FA
:104310002828082828281A1F2846FFF72CFF1CE009
:104320002846FFF78DFF18E021462846FFF7C9FF12
:1043300013E021462846FFF754FF0EE021462846A9
:10434000FFF78AFF09E021462846FFF7BAFF21461A
:104350002846FFF781FF00E0002038BDE0B108B536
:1043600084460379013B092B18D8DFE803F00505E3
:1043700005050D11090909096046FFF77FFC08BD15
:104380006046FFF7DBFDFAE76046FFF7BDFEF6E7A4
:104390006046FFF7ACFFF2E7002070470020EEE731
:1043A000772801D90020704708B500EB4000034B87
:1043B00003EBC000FFF7D2FF08BD00BF940400204C
:1043C0002DE9F041461877281DD80446174698462F
:1043D000B6B2013EB6B2D1B1772E12D9002513E0A4
:1043E00004EB4400424639460A4B03EBC000FFF79A
:1043F000B5FF80B20544ADB20134A4B2B442EFD9E6
:1044000002E00025FAE700252846BDE8F0810D46C8
:10441000FAE700BF940400201346C2B10B449BB2DC
:10442000013B9BB2012803D0022808D0002070472E
:104430003B290ED83B2B0ED80A48084470474B291D
:104440000BD84B2B0BD8084800EB410070470020DD
:104450007047002070470020704700207047002000
:10446000704700BFD40F0020101000202DE9F04F3E
:104470009BB00B908A46079208939DF89080BDF8F8
:104480009440BDF89860BDF89C509DF8A030099309
:10449000BDF8A4300C939DF8B4300A93BDF8B83041
:1044A0000D93A3199BB2013B1FFA83FB771940467A
:1044B00001F024FA02460E90884B1B68ADF8643078
:1044C0001B0C8DF86630864B93E8030017908DF82F
:1044D0006010844B93E803001590ADF85810090C58
:1044E0008DF85A10804B1B68ADF850301B0C8DF8BE
:1044F0005230772C0AD8BFB246B1BBF1770F05D83E
:104500004FF6FF739D4201D007B1F2B90AF168037B
:104510000DEB0301079B68330DEB0302CDF810B0E0
:1045200003942C9B02932B9B01932A9B0093089B43
:1045300012F90C2C11F9041C6C48FDF79BFE4FF08E
:10454000000948461BB0BDE8F08F6948FDF792FEB0
:104550004FF00009CDF844A0DA46DDF838B0CDF8C8
:104560004880A04613942E464D4640E00E9646E005
:104570000F964AE010965F4B08EB480203EBC2042B
:104580000B9903F83210A4F802806670129B237115
:1045900084F805B00BFB06F91FFA89F90D9B4B4413
:1045A0009FB20A9BA3715A4639461846FFF734FF5B
:1045B000A060109B01930F9B00930E9B089A079994
:1045C000119801F075FEE060099B23740C9B9944DF
:1045D000A4F81290139B98451ED0D0451CD008F12A
:1045E00001081FFA88F8731C9EB2AB1C9DB2D0451F
:1045F00071D82A9B13F10A0FB8D02A9B0E932B9BDC
:1046000013F10A0FB4D02B9B0F932C9B13F10A0FBD
:10461000B0D02C9B1093AEE7089B0093079B6833A8
:104620006B4413F90C3C119A68326A4412F9042C59
:1046300041463148FDF71EFE2A9B002B2DDA2A9BAE
:1046400013F10A0F2ED02B9B002B30DA2B9B13F18A
:104650000A0F31D02C9B002B33DA2C9B13F10A0F5D
:1046600034D0A3683A460A996831694411F9181C94
:104670002248FDF7FFFD628A099B68336B4413F9FA
:10468000141C1F48FDF7F6FDE16811B11D48FDF748
:10469000F1FD1D48FDF7EEFDA1E719461B48FDF7AA
:1046A000E9FDD0E731461948FDF7E4FDCBE71946AF
:1046B0001648FDF7DFFDCDE731461448FDF7DAFD7A
:1046C000C8E719461248FDF7D5FDCAE7314610483C
:1046D000FDF7D0FDC5E7A94633E700BFE4B2000807
:1046E000E8B20008F0B20008F8B20008B0B2000862
:1046F00048B200089404002054B200086CB20008CC
:104700008CB20008A4B20008A0B0000864B200088F
:1047100068B2000808B500223C21044801F002F903
:1047200000224C21024801F008F908BDD40F0020F6
:10473000101000202DE9F04F8FB0FFF7EBFF4FF086
:10474000FF3BCDF830B000260B960A96012509955F
:10475000089507956FF0090ACDF818A0059602276D
:10476000049703964FF00408CDF808800196009551
:104770002B46324631462846FFF778FE0446CDF8F0
:1047800030B00B960A96099708950797CDF818A0B0
:104790000596CDF810800396CDF80880CDF80480FA
:1047A00000972B463A4631463846FFF75FFE0444F1
:1047B000A4B20C960B97CDF8288009970897079715
:1047C000CDF818A005964FF00309CDF81090039688
:1047D000CDF808800823019300972B463A462946D6
:1047E0004846FFF743FE0444A4B2CDF830B00B9620
:1047F000CDF828800995CDF820900797CDF818A01E
:104800000E22059204970396CDF808800C210191A1
:1048100000952B46324629464046FFF727FE0444C2
:10482000A4B208230C930B970A930995CDF8208026
:104830000797CDF818A0059604950396CDF8088043
:104840001023019300952B46324629460520FFF799
:104850000DFE0444A4B2CDF830B00B9608220A92A3
:1048600009970895CDF81C90CDF818A00E22059256
:10487000CDF810800396CDF808804FF0140CCDF8D9
:1048800004C0CDF800902B464A4631460620FFF77B
:10489000EDFD0444A4B20C200C900B9710230A9356
:1048A00009970897CDF81C90CDF818A00E21059116
:1048B000CDF810900396CDF808804FF0180CCDF885
:1048C00004C0CDF800902B464A4629460720FFF742
:1048D000CDFD0444A4B2CDF830B00B960C200A9064
:1048E0000995CDF82090CDF81C90CDF818A01C2388
:1048F000059304970396CDF80880019300952B4605
:10490000324629460820FFF7B1FD0444A4B21C2317
:104910000C930B9710220A920995CDF82080CDF8C0
:104920001C90CDF818A00E21059104950396CDF8A2
:1049300008804FF0200ECDF804E000952B4632465B
:1049400029460920FFF792FD0444A4B24FF0200E3F
:10495000CDF830E00B974FF0180CCDF828C0099730
:10496000CDF820B0CDF81C80CDF818A02A210591F3
:10497000CDF810900396CDF808804FF0240CCDF8B8
:1049800004C000952B462A4629460A20FFF76EFDF3
:104990000444A4B2CDF830B00B9614220A920995C3
:1049A000CDF820B006220792CDF818A01C2305935D
:1049B00004950396CDF808802822019200952B4695
:1049C000324629460C20FFF751FD0444A4B2CDF82D
:1049D00030B00B964FF0180ECDF828E009950895E9
:1049E0000795CDF818A02A21059104950396CDF8D6
:1049F00008802C22019200950523324639460E206C
:104A0000FFF734FD0444A4B2CDF830B00B961C235C
:104A10000A93099508950797CDF818A04FF0380E1E
:104A2000CDF814E004950396CDF808804FF0300CD3
:104A3000CDF804C000950523324639460F20FFF714
:104A400015FD0444A4B2CDF830B00B961C230A9394
:104A500009970895CDF81C90CDF818A04FF0380EA6
:104A6000CDF814E0CDF810900396CDF808803423EB
:104A700001930520009003464A4639461220FFF76D
:104A8000F5FC0444A4B2CDF830B00B9620230A9371
:104A900009950897CDF81C90CDF818A046230593EA
:104AA00004950396CDF808804FF0380ECDF804E059
:104AB00000950523324629461320FFF7D7FC04440E
:104AC000A4B24FF0240CCDF830C00B97CDF828C01D
:104AD0000997CDF82080CDF81C90CDF818A054206F
:104AE0000590CDF810900396CDF808803C230193F3
:104AF000CDF8009005234A4629461520FFF7B6FC5D
:104B00000444A4B234230C930B972C230A930997E3
:104B1000CDF820B0CDF81C80CDF818A070230593F7
:104B2000CDF810900396CDF80880402301930095AE
:104B300005232A4629461620FFF798FC0444A4B210
:104B40004FF0380ECDF830E00B974FF0240CCDF835
:104B500028C00995CDF820B04FF0060ECDF81CE026
:104B6000CDF818A05420059004950396CDF8088040
:104B70004423019300950523324629461820FFF768
:104B800075FC0444A4B24FF03C0CCDF830C00B9738
:104B90004FF0280ECDF828E00995CDF820B04FF061
:104BA000070ECDF81CE0CDF818A0622305930495FC
:104BB0000396CDF8088048230193009505233246DB
:104BC00029461920FFF752FC0444A4B2CDF830B0B6
:104BD0000B964FF0300ECDF828E00997CDF820B0B5
:104BE000CDF81CA0CDF818902A210591CDF81080A1
:104BF00003960C2002904C230193009707233A461A
:104C000029463420FFF732FC0444A4B2CDF830B07A
:104C10000B962C230A930995CDF820B0CDF81CA053
:104C2000069566230593049503964FF01008CDF87A
:104C300008805823019300950823324629463720DF
:104C4000FFF714FC0444A4B2CDF830B00B964FF03B
:104C50003C0CCDF828C00997CDF820B0CDF81CA0A9
:104C6000069774230593CDF810900396CDF808802D
:104C700068230193009708233A4629463820FFF716
:104C8000F5FB0444A4B235230493039683230293D3
:104C900001961F2300933346752231460348FDF7E2
:104CA000E9FA20460FB0BDE8F08F00BFFCB2000863
:104CB00010B50023012204211846FFF781FB0446AA
:104CC0000023012204211420FFF77AFB0444A4B23C
:104CD0000023012204211820FFF772FB0444A4B230
:104CE0000023012204211C20FFF76AFB0444A4B224
:104CF0000023012204210846FFF762FB0444A4B20A
:104D00000023012204210820FFF75AFB0444A4B227
:104D10000023012204210C20FFF752FB0444A4B21B
:104D20000023012204212420FFF74AFB0444A4B2FB
:104D30000023012204212820FFF742FB0444A4B2EF
:104D40000023012204212C20FFF73AFB0444A4B2E3
:104D50000023012204213020FFF732FB0444A4B2D7
:104D60000023012204213420FFF72AFB0444A4B2CB
:104D70000023012204213820FFF722FB0444A4B2BF
:104D80000023012204213C20FFF71AFB0444A4B2B3
:104D90000023012204214020FFF712FB0444A4B2A7
:104DA0000023012204214420FFF70AFB0444A4B29B
:104DB0000023012204214820FFF702FB0444A4B28F
:104DC0000023012210215820FFF7FAFA0444A4B26C
:104DD0000023012210216820FFF7F2FA204480B25C
:104DE00010BD10B500231A4604211820FFF7E8FA79
:104DF000044600231A4604210820FFF7E1FA044480
:104E0000A4B200231A4604212420FFF7D9FA04444F
:104E1000A4B200231A4604212820FFF7D1FA044443
:104E2000A4B200231A4604212C20FFF7C9FA044437
:104E3000A4B200231A4604213020FFF7C1FA04442B
:104E4000A4B200231A4604213420FFF7B9FA04441F
:104E5000A4B200231A4604213820FFF7B1FA044413
:104E6000A4B200231A4604213C20FFF7A9FA044407
:104E7000A4B200231A4604214020FFF7A1FA0444FB
:104E8000A4B200231A4604214420FFF799FA0444EF
:104E9000A4B200231A4604214820FFF791FA0444E3
:104EA000A4B200231A4610215820FFF789FA0444BF
:104EB000A4B200231A4610216820FFF781FA20448B
:104EC00080B210BD70B582B000241EE000258DF8C0
:104ED0000750A6B20DF107020E2104F12400FFF7DE
:104EE0005FFA8DF807500DF107020E2106F1100050
:104EF000FFF756FA8DF807500DF107020E2106F163
:104F00002000FFF74DFA0134E4B2032CDED900246F
:104F100027E000268DF80760A5B20DF107020E21EB
:104F200004F14000FFF73CFA4FF47A7300936A46AD
:104F30000E2105F13C00FFF733FA8DF807600DF103
:104F400007020E2105F14400FFF72AFA8DF80760E9
:104F50000DF107020E2105F14800FFF721FA013497
:104F6000E4B2032CD5D91A4B1B88ADF8043001AA42
:104F70000E215520FFF714FA6B23ADF8043001AA77
:104F80000E214C20FFF70CFA1123ADF8043001AAD2
:104F90000E214D20FFF704FA40F2E673ADF804301D
:104FA00001AA0E214E20FFF7FBF9D923ADF80430FA
:104FB00001AA0E214F20FFF7F3F90123ADF80430C9
:104FC00001AA0E215020FFF7EBF902B070BD00BF1F
:104FD0009004002070B584B00121412003F0D2FF7D
:104FE00003A803F0ADFC4FF4F064ADF80C402825A5
:104FF0008DF80F5003238DF80E3003A91D4803F0E0
:1050000001FC0721042003F05FFD0821042003F0C8
:105010005BFD0921042003F057FD0A21042003F061
:1050200053FD01A803F088FB019400268DF8086069
:1050300010238DF8093001248DF80A4001A803F0EF
:105040000DFB17238DF800308DF801408DF80260BC
:105050008DF80340684603F0B5FA8DF800508DF8DE
:1050600001408DF802408DF80340684603F0AAFA2B
:1050700004B070BD0018014000B583B00023019357
:1050800010B10346032A03D9019803B05DF804FB6D
:105090009DF8000062F306008DF80000184603F04A
:1050A00057FC9DF8003060F3C7138DF800300023E3
:1050B00001AA69460248006802F009F9E4E700BF66
:1050C0003802002010B5802003F03EFB01280FD0ED
:1050D00000244FF4807003F037FB012812D04FF406
:1050E000007003F031FB012818D0012C22D010BD34
:1050F000002280211548FFF7BFFF0446802003F0FF
:105100006FFBE6E701224FF480711048FFF7B4FF10
:1051100004464FF4807003F063FBE0E702224FF493
:1051200000710A48FFF7A8FF04464FF4007003F02F
:1051300057FBDAE74FF0E0234FF08052C3F8042D1D
:10514000BFF34F8FBFF36F8FD1E700BF001801404F
:1051500010B54FF4806003F0F7FA012800D010BDBD
:1051600003224FF480610A48FFF786FF04464FF49C
:10517000806003F035FB012CF1D14FF0E0234FF0BC
:105180008052C3F8042DBFF34F8FBFF36F8FE6E754
:105190000018014000B583B00121412003F0F2FE68
:1051A00001A803F0CDFB4FF4F043ADF80430102319
:1051B0008DF8073003238DF8063001A9024803F06B
:1051C00021FB03B05DF804FB0018014038B108B5BD
:1051D00012B103F049FC08BD03F016FCFBE7704771
:1051E00038B108B512B103F00FFC08BD03F03CFC68
:1051F000FBE7704738B108B513B1FFF7E7FF08BD0B
:10520000FFF7EEFFFBE770470349CA6802F4E0626C
:10521000024B1343CB60FEE700ED00E00400FA050B
:1052200008B5002003F09EFD002003F005FD03F00B
:1052300079FC402003F036FD4FF4C06003F064FDBC
:1052400004214FF4803003F009FD4FF4E0114FF4D6
:10525000803003F0BDFC002003F0B4FD4FF480600B
:1052600003F0D4FD002003F0F1FD4FF4803003F093
:105270007FFC03F011FF012800D0FEE703F072FD70
:105280003B2003F0CBFE0028FAD0012003F0D4FC31
:10529000392003F0C3FE0028FAD0022003F074FD89
:1052A00003F088FD0828FBD108BD000008B503F015
:1052B000DFF80B4B1B680B4AA2FB03239B09013B46
:1052C000B3F1807F0AD24FF0E0225361064BF02108
:1052D00083F82310002393610723136108BD00BFE7
:1052E0005C000020D34D621000ED00E008B5094BD2
:1052F0001B7803B108BD00214FF0804004F064F832
:1053000001214FF0804003F08FFF024B01221A7001
:10531000F0E700BFA910002008B5094B1B7803B9BE
:1053200008BD00214FF0804003F07EFF00214FF0C8
:10533000804004F049F8024B00221A70F0E700BFE9
:10534000A910002010B584B00121084603F040FEEA
:105350000024ADF806404FF43473ADF80430ADF8D6
:105360000A400A23ADF8083001A94FF0804003F04D
:10537000ABFE1C238DF8003003238DF801308DF82F
:10538000024001248DF80340684603F01BF92246D1
:1053900021464FF0804003F0ABFFFFF7BDFF04B0A4
:1053A00010BD000070B584B00121022003F010FE92
:1053B0000026ADF806604FF46163ADF80430ADF837
:1053C0000A600A23ADF80830104D01A9284603F001
:1053D0007BFE1D238DF8003003238DF8013001245E
:1053E0008DF802408DF80340684603F0EBF8224642
:1053F0002146284603F07CFF3146284603F0E4FFAF
:105400002146284603F010FF04B070BD00040040A0
:10541000024640B108B5138813F0400FFBD0104688
:1054200004F086FA08BD7047024B2022C3F884209E
:10543000704700BF00E100E0014B20225A60704736
:1054400000E100E070B586B0304800F081FF3048E0
:1054500000F07EFF012144F2050003F093FD4FF4BC
:105460000073ADF8143018238DF8173003238DF82E
:105470001630284C05A9204603F0C4F94FF4806388
:10548000ADF8143004238DF8173005A9204603F039
:10549000B9F901A804F090F94FF461430193002495
:1054A000ADF80840ADF80A40ADF80C400C23ADF85B
:1054B0000E30ADF81040184D01A9284604F0A0F8B0
:1054C00025238DF800308DF8014001268DF802600B
:1054D0008DF80360684603F075F8324640F22551B6
:1054E000284604F0ABF9324640F22771284604F012
:1054F000A5F9224640F22441284604F09FF931469E
:10550000284604F065F906B070BD00BFAC1000205D
:1055100034110020000801400038014010B540F26D
:1055200025511B4804F0A8FA012807D040F2277142
:10553000174804F0A1FA012818D010BD144C40F20D
:105540002551204604F01AFB204604F01DFAC1B292
:10555000104B1970104800F000FF0028E6D100221F
:1055600040F22551204604F069F9DFE709490B486C
:1055700000F01EFF28B1074B1978054804F0D8F950
:10558000DBE7002240F22771014804F057F9D4E725
:1055900000380140AA100020AC1000203411002077
:1055A00038B504460D46FFF73FFF2A46214610480E
:1055B00000F0EBFE044618B9FFF73EFF204638BD69
:1055C0000C490B4800F0F4FE0028F5D00A4B1B886C
:1055D00013F0800FFAD0084D064B1978284604F0D6
:1055E000A7F9012240F22771284604F027F9E3E7E2
:1055F00034110020AA1000200038014070B5054683
:10560000002604E0FFF718FF0135013621464B1E46
:105610009CB249B1FFF708FF2946044800F0C8FED4
:105620000028EFD1FFF708FF304670BDAC10002016
:10563000F0B587B001214FF4003003F0C9FC01211F
:10564000052003F09FFC0425ADF8145018238DF8B5
:10565000173003238DF816302D4C05A9204603F092
:10566000D1F80823ADF814308DF8175005A920465D
:1056700003F0C8F80DEB050004F09EF8254CA07A65
:1056800000F00F00FDF74CF90190A07AC0F3001074
:10569000FDF766F9ADF80800A07AC009FDF773F9C7
:1056A000ADF80A00A07AC0F34110FDF760F9ADF83B
:1056B0000C000C23ADF80E300027ADF81070164D1D
:1056C00001A9284603F09CFF26238DF800308DF8B1
:1056D00001708DF8027001268DF80360684602F0B3
:1056E00071FF324640F22551284604F0A7F83246B1
:1056F00040F22441284604F0A1F839462046FDF73F
:10570000FDFE3146284604F063F807B0F0BD00BF47
:10571000000801405C0200200044004010B582B047
:105720004F4B01221A6040F224414E4804F0A4F984
:1057300010B34D4B93F82C320BB1F02B0AD101234F
:105740008DF807300023464A0DF1070147480068ED
:1057500001F0BDFD434C1021204604F037F940F222
:105760002551204604F088F940F22551204604F0E6
:1057700005FA204604F008F940F22551394804F0B2
:105780007BF9D0B1384B93F82C32002B3FD1364BFC
:1057900093F80731F82B26D9334B042283F81A21CA
:1057A000314B93F81A311BB12F4BF02283F82C2286
:1057B00040F225512B4804F0E1F940F226612948D6
:1057C00004F05AF948B1284B93F82C32012B22D01F
:1057D00040F22661234804F0D1F9214B1B68012BCC
:1057E00032D002B010BD1F4804F0CEF81E4A92F825
:1057F0000731C0B21A445073012B04D001331A4A46
:1058000082F80731CCE7184A82F80801F6E7154814
:1058100004F0BAF8CCE7144A92F8233292F8222224
:1058200093420CD2104C234493F828110D4804F0F5
:105830007FF894F82332013384F82332C8E700213B
:105840000948FDF75BFEC3E74FF0E0234FF08052BD
:10585000C3F8042DBFF34F8FBFF36F8FC1E700BFB5
:10586000BC110020004400405C02002048020020DF
:1058700010B586B001214FF4802003F0A9FB01216F
:10588000092003F07FFB4FF48063ADF81430182338
:105890008DF8173003238DF81630174C05A92046D4
:1058A00002F0B0FF4FF40063ADF8143004238DF81C
:1058B000173005A9204602F0A5FF01A803F07CFFE0
:1058C0004FF4E13301930023ADF80830ADF80A300E
:1058D000ADF80C300C22ADF80E20ADF81030A4F568
:1058E000444401A9204603F08BFE0121204603F029
:1058F0006FFF06B010BD00BF000C0140431E092B16
:105900000CD8DFE803F005050D0E0D0905050D07A0
:105910000120704704207047042070470020704722
:1059200002207047034630B1002002E01A540130D3
:1059300080B28842FAD3C0B27047034608B1002053
:1059400004E0704723F81020013080B28842F9D378
:105950007047020A4FF0000362F3070360F30F235E
:1059600098B2704708B5032907D8DFE801F0020AAA
:10597000020A012A02D0032A00D008BDFFF7E9FF7E
:10598000FBE70AB1022AF8D1FFF7E3FFF5E72DE9BB
:10599000F04F83B000911646BDF830809DF834205A
:1059A00001929DF838A0002B6BD005461F46B8F138
:1059B000000F61D144464FF000090F9B0BB183F8F3
:1059C0000090E0B203B0BDE8F08F032E22D149E091
:1059D000019B0BB1032B1DD10BF1010B5FFA8BFB6C
:1059E00018E004F1004B0BF1FF3B37F81B3027F8B0
:1059F0001430019A314635F81400FFF7B3FF27F849
:105A00001B004FF0000B05E0BAF1000FD5D00023CA
:105A100027F814300134A4B24445CED2002DF3D07F
:105A2000009B9C42F0D2B9F1000F09D137F8142045
:105A300035F814309A4203D009F101095FFA89F967
:105A4000BBF1000FCDD1019A314635F81400FFF7B4
:105A500089FF27F81400022EB7D873B2002BB7D1F4
:105A6000002ED7D1019B013BDBB2012BD2D80BF129
:105A7000010B5FFA8BFBCDE74FF00009CB464C469C
:105A8000CAE74FF000094C4697E710B584B01346BB
:105A9000002403940294012201920091FFF777FF02
:105AA00004B010BD0000000070B504460D4600268D
:105AB00008E00022284B2046294604F097FB0446C4
:105AC0000D4601360022244B2046294604F0EAFC0C
:105AD000E0B11DA3D3E900232046294604F0E2FCEF
